:1000000012C021C020C01FC01EC01DC01CC01BC00C
:100010001AC019C018C017C016C015C014C013C02C
:1000200012C011C010C011241FBECFE5D4E0DEBF46
:10003000CDBF20E0A0E6B0E001C01D92A137B2071D
:10004000E1F738D0B1C0DCCF25B32F7C25BB9C01B4
:100050002F703327807F9927220F331F220F331FE2
:1000600028BB929582958F7089279F70892785BBC1
:1000700085B3806385BB82E08A95F1F700C085B3C4
:100080008F7C85BBCB018F709927607F7727880F86
:10009000991F880F991F88BB729562956F706727AB
:1000A0007F70672765BBAD9A82E08A95F1F700C043
:1000B000AD9808958FEF87BB8FE384BB86E880BD42
:1000C0008CE089B910BC88E18AB9C0E6D0E0109212
:1000D0007000E0E6F0E05F9BFECF8CB181938E2F45
:1000E0008C1B8093700080E0E037F807A1F76091E7
:1000F000600070E080E090E0A7DF609161006F70C9
:1001000070E081E090E0A0DF6091620070E082E04A
:1001100090E09ADF609163006F7070E083E090E0A0
:1001200093DF6091640070E084E090E08DDF609187
:1001300065006F7070E085E090E086DF609166009A
:100140006F7170E086E090E07FDF6091670070E0A3
:1001500087E090E079DF609168006F7170E088E07F
:1001600090E072DF609169006F7170E089E090E06B
:100170006BDF60916A006F7170E08AE090E064DF8D
:1001800060916B0070E08BE090E05EDF60916C004E
:1001900070E08CE090E058DF60916D006F7070E06F
:0C01A0008DE090E051DF93CFF894FFCF8A
:00000001FF
