:1000000012C02CC02BC02AC029C028C027C026C0BF
:1000100025C024C023C023C021C020C01FC01EC0D3
:100020001DC01CC01BC011241FBECFE5D4E0DEBF25
:10003000CDBF10E0A0E6B0E0E8E2F3E002C005903A
:100040000D92A036B107D9F722E0A0E6B0E001C0DA
:100050001D92A436B207E1F79BD064C1D1CF1F92A5
:100060000F920FB60F9211242F933F934F938F93BC
:100070009F93EF93FF9380916000909161002CB16A
:10008000FC01EC59FF4F20839C012F5F3F4F21154E
:1000900042E0340790F08F5F91409093610080932D
:1000A0006000FF91EF919F918F914F913F912F9120
:1000B0000F900FBE0F901F90189530936100209302
:1000C0006000EFCF25B32F7C25BB9C012F70332719
:1000D000807F9927220F331F220F331F28BB929551
:1000E00082958F7089279F70892785BB85B3806330
:1000F00085BB82E08A95F1F700C085B38F7C85BB14
:10010000CB018F709927607F7727880F991F880F01
:10011000991F88BB729562956F7067277F706727FC
:1001200065BBAD9A82E08A95F1F700C0AD9808955D
:100130008FEF87BB8FE384BB789486E880BD8CE02B
:1001400089B910BC88E98AB92FEF80E792E0215085
:1001500080409040E1F700C000005D9BFECF88E04A
:100160008CB92FEF80E792E0215080409040E1F77A
:1001700000C000005D9BFECF88E08CB92FEF80E7C8
:1001800092E0215080409040E1F700C000000895C7
:10019000CFDF18E080916200909163009C012F5F97
:1001A0003F4F211542E0340708F03250F901EC5975
:1001B000FF4F40814F704083A9014E5F5F4F411553
:1001C00062E0560708F0ABC09A01F901EC59FF4F05
:1001D00040814F704083A9014E5F5F4F411562E03F
:1001E000560708F099C09A01F901EC59FF4F408178
:1001F0004F704083A9014F5F5F4F411562E0560782
:1002000008F087C09A01F901EC59FF4F40814F7106
:100210004083A9014E5F5F4F411562E0560708F029
:1002200075C09A01F901EC59FF4F40814F7140832D
:10023000A9014F5F5F4F411562E0560708F063C0A8
:100240009A01F901EC59FF4F40814F714083A90198
:100250004F5F5F4F411562E0560708F051C09A01A9
:10026000F901EC59FF4F40814F714083F9013396FA
:10027000E11542E0F40708F0F250EC59FF4F2081FD
:100280002F7020839093630080936200C0E0D0E0E1
:10029000FC01EC59FF4F608170E0CE0113DF20912B
:1002A000620030916300C9010196811562E09607F2
:1002B00018F0C9018F5F91409093630080936200B2
:1002C0002196CE30D10521F79C012E5F3F4F21159D
:1002D00042E0340718F09C012E5F314030936300F8
:1002E000209362003E7F232B39F08FE39CE9019736
:1002F000F1F700C000004ECF5D9BFECF1CB9F5CFDB
:100300002F5F3140ADCF2F5F31409BCF2E5F31400B
:1003100089CF2F5F314077CF2E5F314065CF2E5F81
:08032000314053CFF894FFCFE8
:00000001FF
